:1000000033C0000041C000003FC0000053C00000EA
:100010003BC0000039C0000037C0000035C0000000
:1000200033C0000031C000002FC000002DC0000010
:100030002BC0000029C0000027C0000025C0000020
:1000400023C0000021C000001FC000001DC0000030
:100050001BC0000019C0000017C0000015C0000040
:1000600013C0000011C0000011241FBECFEFD8E064
:10007000DEBFCDBF21E0A0E0B1E001C01D92A136FE
:10008000B207E1F78FD024C1BBCF2D9A8091020136
:1000900081110FC0EDE2F1E0A7E4B1E0819191910F
:1000A0008D939D9381E0E134F807C1F781E080935F
:1000B000020108951F920F920FB60F9211242F93F1
:1000C0003F934F935F936F937F938F939F93AF93E0
:1000D000BF93EF93FF93189B02C0299A31C02091E0
:1000E0008400309185008091000190910101281BCE
:1000F000390B809184009091850090930101809349
:10010000000180910601293893E1390738F08A30DF
:1001100028F4299810920601B8DF12C0E82FF0E009
:10012000EE0FFF1FE35DFE4F369527953183208349
:100130008F5F8B3018F48093060102C01092060185
:10014000FF91EF91BF91AF919F918F917F916F91AF
:100150005F914F913F912F910F900FBE0F901F9085
:1001600018951092800082E08093810081E086BB28
:10017000109285001092840008959093C50080939A
:10018000C40088E98093C1008EE08093C20082E0C1
:100190008093C00008959091C00095FFFCCF80939C
:1001A000C600089581E190E0E8DF109268001092A7
:1001B0006C0081E08093680080936B00259A219AFF
:1001C0002098CFDF03E211E0E7E0F1E084E893E07C
:1001D000819391930E171F07D9F78CED95E09093BB
:1001E00008018093070190930A018093090190937D
:1001F0000E0180930D019093220180932101EDE285
:10020000F1E081E491E024E833E0219331938E170B
:100210009F07D9F778949FE9E92EFF24FA942BE5FC
:10022000C22E21E0D22E80E2B6DF80E4B4DF10924D
:100230000301F0920501E092040187E0882E81E03D
:10024000982E5401F401819191914F012091040164
:1002500030910501281B31093093050120930401D9
:100260009ADFF501F181CF2F80E0D82F8091040132
:10027000909105018C1B9D0B9093050180930401C7
:100280008F2F89DF08151905E1F68091040183DFBE
:100290008091050180DF2D988FEF909102019923C5
:1002A00071F0E7E4F1E0A7E0B1E0219131912D9305
:1002B0003D93CE16DF06C9F7109202012D98E7E6AE
:1002C000F1E03197F1F700C00000815031F7ABCF7A
:0402D000F894FFCFD0
:00000001FF
